{
  "contractName": "MarriageRegistry",
  "abi": [
    {
      "constant": true,
      "inputs": [
        {
          "name": "",
          "type": "address"
        }
      ],
      "name": "activeProposals",
      "outputs": [
        {
          "name": "sendername",
          "type": "string"
        },
        {
          "name": "recipientname",
          "type": "string"
        },
        {
          "name": "senderaddress",
          "type": "address"
        },
        {
          "name": "recipientaddress",
          "type": "address"
        }
      ],
      "payable": false,
      "stateMutability": "view",
      "type": "function"
    },
    {
      "constant": true,
      "inputs": [
        {
          "name": "",
          "type": "uint256"
        }
      ],
      "name": "marriages",
      "outputs": [
        {
          "name": "person1name",
          "type": "string"
        },
        {
          "name": "person2name",
          "type": "string"
        },
        {
          "name": "person1address",
          "type": "address"
        },
        {
          "name": "person2address",
          "type": "address"
        }
      ],
      "payable": false,
      "stateMutability": "view",
      "type": "function"
    },
    {
      "constant": true,
      "inputs": [
        {
          "name": "",
          "type": "address"
        }
      ],
      "name": "isActiveMarriageAddress",
      "outputs": [
        {
          "name": "",
          "type": "bool"
        }
      ],
      "payable": false,
      "stateMutability": "view",
      "type": "function"
    },
    {
      "constant": true,
      "inputs": [
        {
          "name": "",
          "type": "address"
        }
      ],
      "name": "marriageIdByAddress",
      "outputs": [
        {
          "name": "",
          "type": "uint256"
        }
      ],
      "payable": false,
      "stateMutability": "view",
      "type": "function"
    },
    {
      "constant": false,
      "inputs": [],
      "name": "renounceOwnership",
      "outputs": [],
      "payable": false,
      "stateMutability": "nonpayable",
      "type": "function"
    },
    {
      "constant": true,
      "inputs": [],
      "name": "owner",
      "outputs": [
        {
          "name": "",
          "type": "address"
        }
      ],
      "payable": false,
      "stateMutability": "view",
      "type": "function"
    },
    {
      "constant": false,
      "inputs": [
        {
          "name": "_newOwner",
          "type": "address"
        }
      ],
      "name": "transferOwnership",
      "outputs": [],
      "payable": false,
      "stateMutability": "nonpayable",
      "type": "function"
    },
    {
      "anonymous": false,
      "inputs": [
        {
          "indexed": false,
          "name": "id",
          "type": "uint256"
        },
        {
          "indexed": false,
          "name": "person1name",
          "type": "string"
        },
        {
          "indexed": false,
          "name": "person2name",
          "type": "string"
        },
        {
          "indexed": false,
          "name": "person1address",
          "type": "address"
        },
        {
          "indexed": false,
          "name": "person2address",
          "type": "address"
        }
      ],
      "name": "NewMarriage",
      "type": "event"
    },
    {
      "anonymous": false,
      "inputs": [
        {
          "indexed": false,
          "name": "person1name",
          "type": "string"
        },
        {
          "indexed": false,
          "name": "person2name",
          "type": "string"
        },
        {
          "indexed": false,
          "name": "person1address",
          "type": "address"
        },
        {
          "indexed": false,
          "name": "person2address",
          "type": "address"
        }
      ],
      "name": "NewProposal",
      "type": "event"
    },
    {
      "anonymous": false,
      "inputs": [
        {
          "indexed": true,
          "name": "previousOwner",
          "type": "address"
        }
      ],
      "name": "OwnershipRenounced",
      "type": "event"
    },
    {
      "anonymous": false,
      "inputs": [
        {
          "indexed": true,
          "name": "previousOwner",
          "type": "address"
        },
        {
          "indexed": true,
          "name": "newOwner",
          "type": "address"
        }
      ],
      "name": "OwnershipTransferred",
      "type": "event"
    },
    {
      "constant": true,
      "inputs": [
        {
          "name": "_address",
          "type": "address"
        }
      ],
      "name": "getMarriageId",
      "outputs": [
        {
          "name": "",
          "type": "uint256"
        }
      ],
      "payable": false,
      "stateMutability": "view",
      "type": "function"
    },
    {
      "constant": true,
      "inputs": [
        {
          "name": "_id",
          "type": "uint256"
        }
      ],
      "name": "getMarriageById",
      "outputs": [
        {
          "name": "",
          "type": "string"
        },
        {
          "name": "",
          "type": "string"
        },
        {
          "name": "",
          "type": "address"
        },
        {
          "name": "",
          "type": "address"
        }
      ],
      "payable": false,
      "stateMutability": "view",
      "type": "function"
    },
    {
      "constant": true,
      "inputs": [
        {
          "name": "_address",
          "type": "address"
        }
      ],
      "name": "getMarriageByAddress",
      "outputs": [
        {
          "name": "",
          "type": "string"
        },
        {
          "name": "",
          "type": "string"
        },
        {
          "name": "",
          "type": "address"
        },
        {
          "name": "",
          "type": "address"
        }
      ],
      "payable": false,
      "stateMutability": "view",
      "type": "function"
    },
    {
      "constant": false,
      "inputs": [
        {
          "name": "_sendername",
          "type": "string"
        },
        {
          "name": "_recipientname",
          "type": "string"
        },
        {
          "name": "_recipientaddress",
          "type": "address"
        }
      ],
      "name": "propose",
      "outputs": [],
      "payable": false,
      "stateMutability": "nonpayable",
      "type": "function"
    },
    {
      "constant": false,
      "inputs": [],
      "name": "clearProposal",
      "outputs": [],
      "payable": false,
      "stateMutability": "nonpayable",
      "type": "function"
    },
    {
      "constant": false,
      "inputs": [],
      "name": "acceptProposal",
      "outputs": [],
      "payable": false,
      "stateMutability": "nonpayable",
      "type": "function"
    },
    {
      "constant": false,
      "inputs": [
        {
          "name": "_person1name",
          "type": "string"
        },
        {
          "name": "_person2name",
          "type": "string"
        },
        {
          "name": "_person1address",
          "type": "address"
        },
        {
          "name": "_person2address",
          "type": "address"
        }
      ],
      "name": "execCreateMarriage",
      "outputs": [],
      "payable": false,
      "stateMutability": "nonpayable",
      "type": "function"
    }
  ],
  "bytecode": "0x6080604052336000806101000a81548173ffffffffffffffffffffffffffffffffffffffff021916908373ffffffffffffffffffffffffffffffffffffffff1602179055506129f4806100536000396000f3006080604052600436106100d0576000357c0100000000000000000000000000000000000000000000000000000000900463ffffffff1680630389b4bd146100d557806315a7c7c714610263578063573662c1146102f65780635d62c8cc1461046e57806369dd246f146104c9578063715018a6146105205780638da5cb5b146105375780638f0240291461058e578063af3b19e5146105e5578063c3cd0f2d146105fc578063cd9601941461078a578063d5a2d652146107fd578063f2fde38b14610975578063f493f8d2146109b8575b600080fd5b3480156100e157600080fd5b50610116600480360381019080803573ffffffffffffffffffffffffffffffffffffffff1690602001909291905050506109cf565b6040518080602001806020018573ffffffffffffffffffffffffffffffffffffffff1673ffffffffffffffffffffffffffffffffffffffff1681526020018473ffffffffffffffffffffffffffffffffffffffff1673ffffffffffffffffffffffffffffffffffffffff168152602001838103835287818151815260200191508051906020019080838360005b838110156101be5780820151818401526020810190506101a3565b50505050905090810190601f1680156101eb5780820380516001836020036101000a031916815260200191505b50838103825286818151815260200191508051906020019080838360005b83811015610224578082015181840152602081019050610209565b50505050905090810190601f1680156102515780820380516001836020036101000a031916815260200191505b50965050505050505060405180910390f35b34801561026f57600080fd5b506102f4600480360381019080803590602001908201803590602001919091929391929390803590602001908201803590602001919091929391929390803573ffffffffffffffffffffffffffffffffffffffff169060200190929190803573ffffffffffffffffffffffffffffffffffffffff169060200190929190505050610b6f565b005b34801561030257600080fd5b5061032160048036038101908080359060200190929190505050610d37565b6040518080602001806020018573ffffffffffffffffffffffffffffffffffffffff1673ffffffffffffffffffffffffffffffffffffffff1681526020018473ffffffffffffffffffffffffffffffffffffffff1673ffffffffffffffffffffffffffffffffffffffff168152602001838103835287818151815260200191508051906020019080838360005b838110156103c95780820151818401526020810190506103ae565b50505050905090810190601f1680156103f65780820380516001836020036101000a031916815260200191505b50838103825286818151815260200191508051906020019080838360005b8381101561042f578082015181840152602081019050610414565b50505050905090810190601f16801561045c5780820380516001836020036101000a031916815260200191505b50965050505050505060405180910390f35b34801561047a57600080fd5b506104af600480360381019080803573ffffffffffffffffffffffffffffffffffffffff169060200190929190505050610ee6565b604051808215151515815260200191505060405180910390f35b3480156104d557600080fd5b5061050a600480360381019080803573ffffffffffffffffffffffffffffffffffffffff169060200190929190505050610f06565b6040518082815260200191505060405180910390f35b34801561052c57600080fd5b50610535610f1e565b005b34801561054357600080fd5b5061054c611020565b604051808273ffffffffffffffffffffffffffffffffffffffff1673ffffffffffffffffffffffffffffffffffffffff16815260200191505060405180910390f35b34801561059a57600080fd5b506105cf600480360381019080803573ffffffffffffffffffffffffffffffffffffffff169060200190929190505050611045565b6040518082815260200191505060405180910390f35b3480156105f157600080fd5b506105fa6110e8565b005b34801561060857600080fd5b5061063d600480360381019080803573ffffffffffffffffffffffffffffffffffffffff16906020019092919050505061141c565b6040518080602001806020018573ffffffffffffffffffffffffffffffffffffffff1673ffffffffffffffffffffffffffffffffffffffff1681526020018473ffffffffffffffffffffffffffffffffffffffff1673ffffffffffffffffffffffffffffffffffffffff168152602001838103835287818151815260200191508051906020019080838360005b838110156106e55780820151818401526020810190506106ca565b50505050905090810190601f1680156107125780820380516001836020036101000a031916815260200191505b50838103825286818151815260200191508051906020019080838360005b8381101561074b578082015181840152602081019050610730565b50505050905090810190601f1680156107785780820380516001836020036101000a031916815260200191505b50965050505050505060405180910390f35b34801561079657600080fd5b506107fb600480360381019080803590602001908201803590602001919091929391929390803590602001908201803590602001919091929391929390803573ffffffffffffffffffffffffffffffffffffffff169060200190929190505050611708565b005b34801561080957600080fd5b5061082860048036038101908080359060200190929190505050611cc4565b6040518080602001806020018573ffffffffffffffffffffffffffffffffffffffff1673ffffffffffffffffffffffffffffffffffffffff1681526020018473ffffffffffffffffffffffffffffffffffffffff1673ffffffffffffffffffffffffffffffffffffffff168152602001838103835287818151815260200191508051906020019080838360005b838110156108d05780820151818401526020810190506108b5565b50505050905090810190601f1680156108fd5780820380516001836020036101000a031916815260200191505b50838103825286818151815260200191508051906020019080838360005b8381101561093657808201518184015260208101905061091b565b50505050905090810190601f1680156109635780820380516001836020036101000a031916815260200191505b50965050505050505060405180910390f35b34801561098157600080fd5b506109b6600480360381019080803573ffffffffffffffffffffffffffffffffffffffff169060200190929190505050611f17565b005b3480156109c457600080fd5b506109cd611f7e565b005b6004602052806000526040600020600091509050806000018054600181600116156101000203166002900480601f016020809104026020016040519081016040528092919081815260200182805460018160011615610100020316600290048015610a7b5780601f10610a5057610100808354040283529160200191610a7b565b820191906000526020600020905b815481529060010190602001808311610a5e57829003601f168201915b505050505090806001018054600181600116156101000203166002900480601f016020809104026020016040519081016040528092919081815260200182805460018160011615610100020316600290048015610b195780601f10610aee57610100808354040283529160200191610b19565b820191906000526020600020905b815481529060010190602001808311610afc57829003601f168201915b5050505050908060020160009054906101000a900473ffffffffffffffffffffffffffffffffffffffff16908060030160009054906101000a900473ffffffffffffffffffffffffffffffffffffffff16905084565b6000809054906101000a900473ffffffffffffffffffffffffffffffffffffffff1673ffffffffffffffffffffffffffffffffffffffff163373ffffffffffffffffffffffffffffffffffffffff16141515610bca57600080fd5b81600360008273ffffffffffffffffffffffffffffffffffffffff1673ffffffffffffffffffffffffffffffffffffffff16815260200190815260200160002060009054906101000a900460ff16151515610c2457600080fd5b81600360008273ffffffffffffffffffffffffffffffffffffffff1673ffffffffffffffffffffffffffffffffffffffff16815260200190815260200160002060009054906101000a900460ff16151515610c7e57600080fd5b83838073ffffffffffffffffffffffffffffffffffffffff168273ffffffffffffffffffffffffffffffffffffffff1614151515610cbb57600080fd5b610d2b8a8a8080601f01602080910402602001604051908101604052809392919081815260200183838082843782019150505050505089898080601f01602080910402602001604051908101604052809392919081815260200183838082843782019150505050505088886123b8565b50505050505050505050565b600181815481101515610d4657fe5b9060005260206000209060040201600091509050806000018054600181600116156101000203166002900480601f016020809104026020016040519081016040528092919081815260200182805460018160011615610100020316600290048015610df25780601f10610dc757610100808354040283529160200191610df2565b820191906000526020600020905b815481529060010190602001808311610dd557829003601f168201915b505050505090806001018054600181600116156101000203166002900480601f016020809104026020016040519081016040528092919081815260200182805460018160011615610100020316600290048015610e905780601f10610e6557610100808354040283529160200191610e90565b820191906000526020600020905b815481529060010190602001808311610e7357829003601f168201915b5050505050908060020160009054906101000a900473ffffffffffffffffffffffffffffffffffffffff16908060030160009054906101000a900473ffffffffffffffffffffffffffffffffffffffff16905084565b60036020528060005260406000206000915054906101000a900460ff1681565b60026020528060005260406000206000915090505481565b6000809054906101000a900473ffffffffffffffffffffffffffffffffffffffff1673ffffffffffffffffffffffffffffffffffffffff163373ffffffffffffffffffffffffffffffffffffffff16141515610f7957600080fd5b6000809054906101000a900473ffffffffffffffffffffffffffffffffffffffff1673ffffffffffffffffffffffffffffffffffffffff167ff8df31144d9c2f0f6b59d69b8b98abd5459d07f2742c4df920b25aae33c6482060405160405180910390a260008060006101000a81548173ffffffffffffffffffffffffffffffffffffffff021916908373ffffffffffffffffffffffffffffffffffffffff160217905550565b6000809054906101000a900473ffffffffffffffffffffffffffffffffffffffff1681565b600081600360008273ffffffffffffffffffffffffffffffffffffffff1673ffffffffffffffffffffffffffffffffffffffff16815260200190815260200160002060009054906101000a900460ff1615156110a057600080fd5b600260008473ffffffffffffffffffffffffffffffffffffffff1673ffffffffffffffffffffffffffffffffffffffff16815260200190815260200160002054915050919050565b6110f0612831565b336000600460008373ffffffffffffffffffffffffffffffffffffffff1673ffffffffffffffffffffffffffffffffffffffff16815260200190815260200160002060020160009054906101000a900473ffffffffffffffffffffffffffffffffffffffff1673ffffffffffffffffffffffffffffffffffffffff161415151561117957600080fd5b600460003373ffffffffffffffffffffffffffffffffffffffff1673ffffffffffffffffffffffffffffffffffffffff16815260200190815260200160002060806040519081016040529081600082018054600181600116156101000203166002900480601f01602080910402602001604051908101604052809291908181526020018280546001816001161561010002031660029004801561125d5780601f106112325761010080835404028352916020019161125d565b820191906000526020600020905b81548152906001019060200180831161124057829003601f168201915b50505050508152602001600182018054600181600116156101000203166002900480601f0160208091040260200160405190810160405280929190818152602001828054600181600116156101000203166002900480156112ff5780601f106112d4576101008083540402835291602001916112ff565b820191906000526020600020905b8154815290600101906020018083116112e257829003601f168201915b505050505081526020016002820160009054906101000a900473ffffffffffffffffffffffffffffffffffffffff1673ffffffffffffffffffffffffffffffffffffffff1673ffffffffffffffffffffffffffffffffffffffff1681526020016003820160009054906101000a900473ffffffffffffffffffffffffffffffffffffffff1673ffffffffffffffffffffffffffffffffffffffff1673ffffffffffffffffffffffffffffffffffffffff168152505091503373ffffffffffffffffffffffffffffffffffffffff16826060015173ffffffffffffffffffffffffffffffffffffffff161415156113f457600080fd5b61141082600001518360200151846040015185606001516123b8565b611418611f7e565b5050565b60608060008061142a612886565b85600360008273ffffffffffffffffffffffffffffffffffffffff1673ffffffffffffffffffffffffffffffffffffffff16815260200190815260200160002060009054906101000a900460ff16151561148357600080fd5b6001600260008973ffffffffffffffffffffffffffffffffffffffff1673ffffffffffffffffffffffffffffffffffffffff168152602001908152602001600020548154811015156114d157fe5b906000526020600020906004020160806040519081016040529081600082018054600181600116156101000203166002900480601f0160208091040260200160405190810160405280929190818152602001828054600181600116156101000203166002900480156115845780601f1061155957610100808354040283529160200191611584565b820191906000526020600020905b81548152906001019060200180831161156757829003601f168201915b50505050508152602001600182018054600181600116156101000203166002900480601f0160208091040260200160405190810160405280929190818152602001828054600181600116156101000203166002900480156116265780601f106115fb57610100808354040283529160200191611626565b820191906000526020600020905b81548152906001019060200180831161160957829003601f168201915b505050505081526020016002820160009054906101000a900473ffffffffffffffffffffffffffffffffffffffff1673ffffffffffffffffffffffffffffffffffffffff1673ffffffffffffffffffffffffffffffffffffffff1681526020016003820160009054906101000a900473ffffffffffffffffffffffffffffffffffffffff1673ffffffffffffffffffffffffffffffffffffffff1673ffffffffffffffffffffffffffffffffffffffff168152505091508160000151826020015183604001518460600151839350829250955095509550955050509193509193565b611710612831565b33600360008273ffffffffffffffffffffffffffffffffffffffff1673ffffffffffffffffffffffffffffffffffffffff16815260200190815260200160002060009054906101000a900460ff1615151561176a57600080fd5b82600360008273ffffffffffffffffffffffffffffffffffffffff1673ffffffffffffffffffffffffffffffffffffffff16815260200190815260200160002060009054906101000a900460ff161515156117c457600080fd5b336000600460008373ffffffffffffffffffffffffffffffffffffffff1673ffffffffffffffffffffffffffffffffffffffff16815260200190815260200160002060020160009054906101000a900473ffffffffffffffffffffffffffffffffffffffff1673ffffffffffffffffffffffffffffffffffffffff1614151561184c57600080fd5b846000600460008373ffffffffffffffffffffffffffffffffffffffff1673ffffffffffffffffffffffffffffffffffffffff16815260200190815260200160002060020160009054906101000a900473ffffffffffffffffffffffffffffffffffffffff1673ffffffffffffffffffffffffffffffffffffffff161415156118d457600080fd5b33868073ffffffffffffffffffffffffffffffffffffffff168273ffffffffffffffffffffffffffffffffffffffff161415151561191157600080fd5b6080604051908101604052808d8d8080601f01602080910402602001604051908101604052809392919081815260200183838082843782019150505050505081526020018b8b8080601f01602080910402602001604051908101604052809392919081815260200183838082843782019150505050505081526020013373ffffffffffffffffffffffffffffffffffffffff1681526020018973ffffffffffffffffffffffffffffffffffffffff16815250965086600460003373ffffffffffffffffffffffffffffffffffffffff1673ffffffffffffffffffffffffffffffffffffffff1681526020019081526020016000206000820151816000019080519060200190611a219291906128db565b506020820151816001019080519060200190611a3e9291906128db565b5060408201518160020160006101000a81548173ffffffffffffffffffffffffffffffffffffffff021916908373ffffffffffffffffffffffffffffffffffffffff16021790555060608201518160030160006101000a81548173ffffffffffffffffffffffffffffffffffffffff021916908373ffffffffffffffffffffffffffffffffffffffff16021790555090505086600460008a73ffffffffffffffffffffffffffffffffffffffff1673ffffffffffffffffffffffffffffffffffffffff1681526020019081526020016000206000820151816000019080519060200190611b2c9291906128db565b506020820151816001019080519060200190611b499291906128db565b5060408201518160020160006101000a81548173ffffffffffffffffffffffffffffffffffffffff021916908373ffffffffffffffffffffffffffffffffffffffff16021790555060608201518160030160006101000a81548173ffffffffffffffffffffffffffffffffffffffff021916908373ffffffffffffffffffffffffffffffffffffffff1602179055509050507fbdf5d488b59f34e69c39234a5305f78c434404f5231291a9e9108c597711823d8c8c8c8c338d6040518080602001806020018573ffffffffffffffffffffffffffffffffffffffff1673ffffffffffffffffffffffffffffffffffffffff1681526020018473ffffffffffffffffffffffffffffffffffffffff1673ffffffffffffffffffffffffffffffffffffffff16815260200183810383528989828181526020019250808284378201915050838103825287878281815260200192508082843782019150509850505050505050505060405180910390a1505050505050505050505050565b606080600080611cd2612886565b600186815481101515611ce157fe5b906000526020600020906004020160806040519081016040529081600082018054600181600116156101000203166002900480601f016020809104026020016040519081016040528092919081815260200182805460018160011615610100020316600290048015611d945780601f10611d6957610100808354040283529160200191611d94565b820191906000526020600020905b815481529060010190602001808311611d7757829003601f168201915b50505050508152602001600182018054600181600116156101000203166002900480601f016020809104026020016040519081016040528092919081815260200182805460018160011615610100020316600290048015611e365780601f10611e0b57610100808354040283529160200191611e36565b820191906000526020600020905b815481529060010190602001808311611e1957829003601f168201915b505050505081526020016002820160009054906101000a900473ffffffffffffffffffffffffffffffffffffffff1673ffffffffffffffffffffffffffffffffffffffff1673ffffffffffffffffffffffffffffffffffffffff1681526020016003820160009054906101000a900473ffffffffffffffffffffffffffffffffffffffff1673ffffffffffffffffffffffffffffffffffffffff1673ffffffffffffffffffffffffffffffffffffffff1681525050905080600001518160200151826040015183606001518393508292509450945094509450509193509193565b6000809054906101000a900473ffffffffffffffffffffffffffffffffffffffff1673ffffffffffffffffffffffffffffffffffffffff163373ffffffffffffffffffffffffffffffffffffffff16141515611f7257600080fd5b611f7b81612697565b50565b611f86612831565b336000600460008373ffffffffffffffffffffffffffffffffffffffff1673ffffffffffffffffffffffffffffffffffffffff16815260200190815260200160002060020160009054906101000a900473ffffffffffffffffffffffffffffffffffffffff1673ffffffffffffffffffffffffffffffffffffffff161415151561200f57600080fd5b600460003373ffffffffffffffffffffffffffffffffffffffff1673ffffffffffffffffffffffffffffffffffffffff16815260200190815260200160002060806040519081016040529081600082018054600181600116156101000203166002900480601f0160208091040260200160405190810160405280929190818152602001828054600181600116156101000203166002900480156120f35780601f106120c8576101008083540402835291602001916120f3565b820191906000526020600020905b8154815290600101906020018083116120d657829003601f168201915b50505050508152602001600182018054600181600116156101000203166002900480601f0160208091040260200160405190810160405280929190818152602001828054600181600116156101000203166002900480156121955780601f1061216a57610100808354040283529160200191612195565b820191906000526020600020905b81548152906001019060200180831161217857829003601f168201915b505050505081526020016002820160009054906101000a900473ffffffffffffffffffffffffffffffffffffffff1673ffffffffffffffffffffffffffffffffffffffff1673ffffffffffffffffffffffffffffffffffffffff1681526020016003820160009054906101000a900473ffffffffffffffffffffffffffffffffffffffff1673ffffffffffffffffffffffffffffffffffffffff1673ffffffffffffffffffffffffffffffffffffffff1681525050915060046000836040015173ffffffffffffffffffffffffffffffffffffffff1673ffffffffffffffffffffffffffffffffffffffff168152602001908152602001600020600080820160006122a0919061295b565b6001820160006122b0919061295b565b6002820160006101000a81549073ffffffffffffffffffffffffffffffffffffffff02191690556003820160006101000a81549073ffffffffffffffffffffffffffffffffffffffff0219169055505060046000836060015173ffffffffffffffffffffffffffffffffffffffff1673ffffffffffffffffffffffffffffffffffffffff16815260200190815260200160002060008082016000612354919061295b565b600182016000612364919061295b565b6002820160006101000a81549073ffffffffffffffffffffffffffffffffffffffff02191690556003820160006101000a81549073ffffffffffffffffffffffffffffffffffffffff021916905550505050565b60006001806080604051908101604052808881526020018781526020018673ffffffffffffffffffffffffffffffffffffffff1681526020018573ffffffffffffffffffffffffffffffffffffffff168152509080600181540180825580915050906001820390600052602060002090600402016000909192909190915060008201518160000190805190602001906124529291906128db565b50602082015181600101908051906020019061246f9291906128db565b5060408201518160020160006101000a81548173ffffffffffffffffffffffffffffffffffffffff021916908373ffffffffffffffffffffffffffffffffffffffff16021790555060608201518160030160006101000a81548173ffffffffffffffffffffffffffffffffffffffff021916908373ffffffffffffffffffffffffffffffffffffffff160217905550505003905061250d8382612791565b6125178282612791565b7f0e20392fb0e050581cd52a254f4d3fcc464c7b646f1da9cfa1090c449953eae181868686866040518086815260200180602001806020018573ffffffffffffffffffffffffffffffffffffffff1673ffffffffffffffffffffffffffffffffffffffff1681526020018473ffffffffffffffffffffffffffffffffffffffff1673ffffffffffffffffffffffffffffffffffffffff168152602001838103835287818151815260200191508051906020019080838360005b838110156125eb5780820151818401526020810190506125d0565b50505050905090810190601f1680156126185780820380516001836020036101000a031916815260200191505b50838103825286818151815260200191508051906020019080838360005b83811015612651578082015181840152602081019050612636565b50505050905090810190601f16801561267e5780820380516001836020036101000a031916815260200191505b5097505050505050505060405180910390a15050505050565b600073ffffffffffffffffffffffffffffffffffffffff168173ffffffffffffffffffffffffffffffffffffffff16141515156126d357600080fd5b8073ffffffffffffffffffffffffffffffffffffffff166000809054906101000a900473ffffffffffffffffffffffffffffffffffffffff1673ffffffffffffffffffffffffffffffffffffffff167f8be0079c531659141344cd1fd0a4f28419497f9722a3daafe3b4186f6b6457e060405160405180910390a3806000806101000a81548173ffffffffffffffffffffffffffffffffffffffff021916908373ffffffffffffffffffffffffffffffffffffffff16021790555050565b80600260008473ffffffffffffffffffffffffffffffffffffffff1673ffffffffffffffffffffffffffffffffffffffff168152602001908152602001600020819055506001600360008473ffffffffffffffffffffffffffffffffffffffff1673ffffffffffffffffffffffffffffffffffffffff16815260200190815260200160002060006101000a81548160ff0219169083151502179055505050565b6080604051908101604052806060815260200160608152602001600073ffffffffffffffffffffffffffffffffffffffff168152602001600073ffffffffffffffffffffffffffffffffffffffff1681525090565b6080604051908101604052806060815260200160608152602001600073ffffffffffffffffffffffffffffffffffffffff168152602001600073ffffffffffffffffffffffffffffffffffffffff1681525090565b828054600181600116156101000203166002900490600052602060002090601f016020900481019282601f1061291c57805160ff191683800117855561294a565b8280016001018555821561294a579182015b8281111561294957825182559160200191906001019061292e565b5b50905061295791906129a3565b5090565b50805460018160011615610100020316600290046000825580601f1061298157506129a0565b601f01602090049060005260206000209081019061299f91906129a3565b5b50565b6129c591905b808211156129c15760008160009055506001016129a9565b5090565b905600a165627a7a72305820b9cad774cd05dfb1263643b488ddf94c527c5d0ae02027d5f388542a3c7741420029",
  "source": "pragma solidity ^0.4.24;\n\nimport \"./safemath.sol\";\nimport \"./ownable.sol\";\n\ncontract MarriageRegistry is Ownable {\n\n  using SafeMath for uint256;\n\n  event NewMarriage(uint256 id, string person1name, string person2name, address person1address, address person2address);\n  event NewProposal(string person1name, string person2name, address person1address, address person2address);\n  //event NewDivorce\n\n  modifier noActiveMarriage(address _address) {\n    require(!isActiveMarriageAddress[_address]);\n    _;\n   }\n\n  modifier hasActiveMarriage(address _address) {\n    require(isActiveMarriageAddress[_address]);\n    _;\n   }\n\n   modifier noActiveProposal(address _address) {\n     require(activeProposals[_address].senderaddress == 0);\n     _;\n    }\n\n   modifier hasActiveProposal(address _address) {\n     require(activeProposals[_address].senderaddress != 0);\n     _;\n    }\n\n  modifier noSelfLove(address _person1address, address _person2address) {\n    require (_person1address != _person2address);\n    _;\n  }\n\n  struct Marriage {\n    string person1name;\n    string person2name;\n    address person1address;\n    address person2address;\n  }\n\n  struct Proposal {\n    string sendername;\n    string recipientname;\n    address senderaddress;\n    address recipientaddress;\n  }\n\n  Marriage[] public marriages;\n\n  mapping (address => uint256) public marriageIdByAddress;\n  mapping (address => bool) public isActiveMarriageAddress;\n  mapping (address => Proposal) public activeProposals;\n\n\n\n  //step1: create marriage by submitting 2 addresses. look up any marriage by an address.\n  //step2: create marriage by submitting from address, 2nd person approves\n  //step3: divorces\n  //step4: proposal tokens - accept/reject by submitting\n\n  function getMarriageId(address _address) public view\n  hasActiveMarriage(_address)\n  returns (uint256) {\n    return marriageIdByAddress[_address];\n  }\n\n  function getMarriageById(uint _id) public view\n  returns (string, string, address, address) {\n    Marriage memory m = marriages[_id];\n    return (m.person1name, m.person2name, m.person1address, m.person2address);\n  }\n\n  function getMarriageByAddress(address _address) public view\n  hasActiveMarriage(_address)\n  returns (string, string, address, address) {\n    Marriage memory m = marriages[marriageIdByAddress[_address]];\n    return (m.person1name, m.person2name, m.person1address, m.person2address);\n  }\n\n  function propose(string _sendername, string _recipientname, address _recipientaddress)\n  noActiveMarriage(msg.sender)\n  noActiveMarriage(_recipientaddress)\n  noActiveProposal(msg.sender)\n  noActiveProposal(_recipientaddress)\n  noSelfLove(msg.sender, _recipientaddress)\n  external\n  {\n    Proposal memory proposal = Proposal(_sendername, _recipientname, msg.sender, _recipientaddress);\n    activeProposals[msg.sender] = proposal;\n    activeProposals[_recipientaddress] = proposal;\n    emit NewProposal(_sendername, _recipientname, msg.sender, _recipientaddress);\n  }\n\n  function clearProposal()\n  hasActiveProposal(msg.sender)\n  public\n  {\n    Proposal memory proposal = activeProposals[msg.sender];\n    delete activeProposals[proposal.senderaddress];\n    delete activeProposals[proposal.recipientaddress];\n  }\n\n  function acceptProposal()\n  hasActiveProposal(msg.sender)\n  public\n  {\n    Proposal memory proposal = activeProposals[msg.sender];\n    require(proposal.recipientaddress == msg.sender);\n    _createMarriage(proposal.sendername, proposal.recipientname,\n      proposal.senderaddress, proposal.recipientaddress);\n    clearProposal();\n  }\n\n  function execCreateMarriage(string _person1name, string _person2name,\n    address _person1address, address _person2address)\n  external\n  onlyOwner\n  noActiveMarriage(_person1address)\n  noActiveMarriage(_person2address)\n  noSelfLove(_person1address, _person2address)\n  {\n    //Marriage memory marriage = Marriage(_person1name, _person2name,\n    //  _person1address, _person2address);\n    _createMarriage(_person1name, _person2name, _person1address, _person2address);\n  }\n\n  function _createMarriage(string _person1name, string _person2name,\n    address _person1address, address _person2address) internal {\n    uint id = marriages.push(Marriage(_person1name, _person2name, _person1address, _person2address)) - 1;\n    _setMarriageArray(_person1address, id);\n    _setMarriageArray(_person2address, id);\n    emit NewMarriage(id, _person1name, _person2name, _person1address, _person2address);\n  }\n\n  function _setMarriageArray(address _address, uint _id) internal {\n    marriageIdByAddress[_address] = _id;\n    isActiveMarriageAddress[_address] = true;\n  }\n\n}\n",
  "sourcePath": "/Users/lyanco/workspace/solidity-experiments/marriage-registry/contracts/MarriageRegistry.sol",
  "compiler": {
    "name": "solc",
    "version": "0.4.24+commit.e67f0147.Emscripten.clang"
  },
  "schemaVersion": "2.0.0",
  "updatedAt": "2018-06-27T15:32:42.113Z"
}