{
  "contractName": "MarriageRegistry",
  "abi": [
    {
      "constant": true,
      "inputs": [
        {
          "name": "",
          "type": "uint256"
        }
      ],
      "name": "marriages",
      "outputs": [
        {
          "name": "person1name",
          "type": "string"
        },
        {
          "name": "person2name",
          "type": "string"
        },
        {
          "name": "person1address",
          "type": "address"
        },
        {
          "name": "person2address",
          "type": "address"
        }
      ],
      "payable": false,
      "stateMutability": "view",
      "type": "function"
    },
    {
      "constant": true,
      "inputs": [
        {
          "name": "",
          "type": "address"
        }
      ],
      "name": "marriageIdByAddress",
      "outputs": [
        {
          "name": "",
          "type": "uint256"
        }
      ],
      "payable": false,
      "stateMutability": "view",
      "type": "function"
    },
    {
      "constant": false,
      "inputs": [],
      "name": "renounceOwnership",
      "outputs": [],
      "payable": false,
      "stateMutability": "nonpayable",
      "type": "function"
    },
    {
      "constant": true,
      "inputs": [],
      "name": "owner",
      "outputs": [
        {
          "name": "",
          "type": "address"
        }
      ],
      "payable": false,
      "stateMutability": "view",
      "type": "function"
    },
    {
      "constant": false,
      "inputs": [
        {
          "name": "_newOwner",
          "type": "address"
        }
      ],
      "name": "transferOwnership",
      "outputs": [],
      "payable": false,
      "stateMutability": "nonpayable",
      "type": "function"
    },
    {
      "anonymous": false,
      "inputs": [
        {
          "indexed": false,
          "name": "person1name",
          "type": "string"
        },
        {
          "indexed": false,
          "name": "person2name",
          "type": "string"
        },
        {
          "indexed": false,
          "name": "person1address",
          "type": "address"
        },
        {
          "indexed": false,
          "name": "person2address",
          "type": "address"
        }
      ],
      "name": "NewMarriage",
      "type": "event"
    },
    {
      "anonymous": false,
      "inputs": [
        {
          "indexed": true,
          "name": "previousOwner",
          "type": "address"
        }
      ],
      "name": "OwnershipRenounced",
      "type": "event"
    },
    {
      "anonymous": false,
      "inputs": [
        {
          "indexed": true,
          "name": "previousOwner",
          "type": "address"
        },
        {
          "indexed": true,
          "name": "newOwner",
          "type": "address"
        }
      ],
      "name": "OwnershipTransferred",
      "type": "event"
    },
    {
      "constant": false,
      "inputs": [
        {
          "name": "_person1name",
          "type": "string"
        },
        {
          "name": "_person2name",
          "type": "string"
        },
        {
          "name": "_person1address",
          "type": "address"
        },
        {
          "name": "_person2address",
          "type": "address"
        }
      ],
      "name": "execCreateMarriage",
      "outputs": [],
      "payable": false,
      "stateMutability": "nonpayable",
      "type": "function"
    }
  ],
  "bytecode": "0x6080604052336000806101000a81548173ffffffffffffffffffffffffffffffffffffffff021916908373ffffffffffffffffffffffffffffffffffffffff160217905550610d6e806100536000396000f300608060405260043610610078576000357c0100000000000000000000000000000000000000000000000000000000900463ffffffff16806315a7c7c71461007d578063573662c11461011057806369dd246f14610288578063715018a6146102df5780638da5cb5b146102f6578063f2fde38b1461034d575b600080fd5b34801561008957600080fd5b5061010e600480360381019080803590602001908201803590602001919091929391929390803590602001908201803590602001919091929391929390803573ffffffffffffffffffffffffffffffffffffffff169060200190929190803573ffffffffffffffffffffffffffffffffffffffff169060200190929190505050610390565b005b34801561011c57600080fd5b5061013b60048036038101908080359060200190929190505050610503565b6040518080602001806020018573ffffffffffffffffffffffffffffffffffffffff1673ffffffffffffffffffffffffffffffffffffffff1681526020018473ffffffffffffffffffffffffffffffffffffffff1673ffffffffffffffffffffffffffffffffffffffff168152602001838103835287818151815260200191508051906020019080838360005b838110156101e35780820151818401526020810190506101c8565b50505050905090810190601f1680156102105780820380516001836020036101000a031916815260200191505b50838103825286818151815260200191508051906020019080838360005b8381101561024957808201518184015260208101905061022e565b50505050905090810190601f1680156102765780820380516001836020036101000a031916815260200191505b50965050505050505060405180910390f35b34801561029457600080fd5b506102c9600480360381019080803573ffffffffffffffffffffffffffffffffffffffff1690602001909291905050506106b2565b6040518082815260200191505060405180910390f35b3480156102eb57600080fd5b506102f46106ca565b005b34801561030257600080fd5b5061030b6107cc565b604051808273ffffffffffffffffffffffffffffffffffffffff1673ffffffffffffffffffffffffffffffffffffffff16815260200191505060405180910390f35b34801561035957600080fd5b5061038e600480360381019080803573ffffffffffffffffffffffffffffffffffffffff1690602001909291905050506107f1565b005b6000809054906101000a900473ffffffffffffffffffffffffffffffffffffffff1673ffffffffffffffffffffffffffffffffffffffff163373ffffffffffffffffffffffffffffffffffffffff161415156103eb57600080fd5b81816000600260008473ffffffffffffffffffffffffffffffffffffffff1673ffffffffffffffffffffffffffffffffffffffff1681526020019081526020016000205414151561043b57600080fd5b6000600260008373ffffffffffffffffffffffffffffffffffffffff1673ffffffffffffffffffffffffffffffffffffffff1681526020019081526020016000205414151561048957600080fd5b6104f988888080601f01602080910402602001604051908101604052809392919081815260200183838082843782019150505050505087878080601f0160208091040260200160405190810160405280939291908181526020018383808284378201915050505050508686610858565b5050505050505050565b60018181548110151561051257fe5b9060005260206000209060040201600091509050806000018054600181600116156101000203166002900480601f0160208091040260200160405190810160405280929190818152602001828054600181600116156101000203166002900480156105be5780601f10610593576101008083540402835291602001916105be565b820191906000526020600020905b8154815290600101906020018083116105a157829003601f168201915b505050505090806001018054600181600116156101000203166002900480601f01602080910402602001604051908101604052809291908181526020018280546001816001161561010002031660029004801561065c5780601f106106315761010080835404028352916020019161065c565b820191906000526020600020905b81548152906001019060200180831161063f57829003601f168201915b5050505050908060020160009054906101000a900473ffffffffffffffffffffffffffffffffffffffff16908060030160009054906101000a900473ffffffffffffffffffffffffffffffffffffffff16905084565b60026020528060005260406000206000915090505481565b6000809054906101000a900473ffffffffffffffffffffffffffffffffffffffff1673ffffffffffffffffffffffffffffffffffffffff163373ffffffffffffffffffffffffffffffffffffffff1614151561072557600080fd5b6000809054906101000a900473ffffffffffffffffffffffffffffffffffffffff1673ffffffffffffffffffffffffffffffffffffffff167ff8df31144d9c2f0f6b59d69b8b98abd5459d07f2742c4df920b25aae33c6482060405160405180910390a260008060006101000a81548173ffffffffffffffffffffffffffffffffffffffff021916908373ffffffffffffffffffffffffffffffffffffffff160217905550565b6000809054906101000a900473ffffffffffffffffffffffffffffffffffffffff1681565b6000809054906101000a900473ffffffffffffffffffffffffffffffffffffffff1673ffffffffffffffffffffffffffffffffffffffff163373ffffffffffffffffffffffffffffffffffffffff1614151561084c57600080fd5b61085581610ba3565b50565b60006001806080604051908101604052808881526020018781526020018673ffffffffffffffffffffffffffffffffffffffff1681526020018573ffffffffffffffffffffffffffffffffffffffff168152509080600181540180825580915050906001820390600052602060002090600402016000909192909190915060008201518160000190805190602001906108f2929190610c9d565b50602082015181600101908051906020019061090f929190610c9d565b5060408201518160020160006101000a81548173ffffffffffffffffffffffffffffffffffffffff021916908373ffffffffffffffffffffffffffffffffffffffff16021790555060608201518160030160006101000a81548173ffffffffffffffffffffffffffffffffffffffff021916908373ffffffffffffffffffffffffffffffffffffffff160217905550505003905080600260008573ffffffffffffffffffffffffffffffffffffffff1673ffffffffffffffffffffffffffffffffffffffff1681526020019081526020016000208190555080600260008473ffffffffffffffffffffffffffffffffffffffff1673ffffffffffffffffffffffffffffffffffffffff168152602001908152602001600020819055507f3c71d35646887400dc6f4621f89b3f72d39a2cd9b0d243de35a9538468d05814858585856040518080602001806020018573ffffffffffffffffffffffffffffffffffffffff1673ffffffffffffffffffffffffffffffffffffffff1681526020018473ffffffffffffffffffffffffffffffffffffffff1673ffffffffffffffffffffffffffffffffffffffff168152602001838103835287818151815260200191508051906020019080838360005b83811015610af8578082015181840152602081019050610add565b50505050905090810190601f168015610b255780820380516001836020036101000a031916815260200191505b50838103825286818151815260200191508051906020019080838360005b83811015610b5e578082015181840152602081019050610b43565b50505050905090810190601f168015610b8b5780820380516001836020036101000a031916815260200191505b50965050505050505060405180910390a15050505050565b600073ffffffffffffffffffffffffffffffffffffffff168173ffffffffffffffffffffffffffffffffffffffff1614151515610bdf57600080fd5b8073ffffffffffffffffffffffffffffffffffffffff166000809054906101000a900473ffffffffffffffffffffffffffffffffffffffff1673ffffffffffffffffffffffffffffffffffffffff167f8be0079c531659141344cd1fd0a4f28419497f9722a3daafe3b4186f6b6457e060405160405180910390a3806000806101000a81548173ffffffffffffffffffffffffffffffffffffffff021916908373ffffffffffffffffffffffffffffffffffffffff16021790555050565b828054600181600116156101000203166002900490600052602060002090601f016020900481019282601f10610cde57805160ff1916838001178555610d0c565b82800160010185558215610d0c579182015b82811115610d0b578251825591602001919060010190610cf0565b5b509050610d199190610d1d565b5090565b610d3f91905b80821115610d3b576000816000905550600101610d23565b5090565b905600a165627a7a72305820b1719dc45e0eceefdb495eafae77e2a904a52362c4d788a89fe4097d1576bdc80029",
  "source": "pragma solidity ^0.4.24;\n\nimport \"./safemath.sol\";\nimport \"./ownable.sol\";\n\ncontract MarriageRegistry is Ownable {\n\n  using SafeMath for uint256;\n\n  event NewMarriage(string person1name, string person2name, address person1address, address person2address);\n  //event NewDivorce\n\n  modifier noActiveMarriage(address _person1address, address _person2address) {\n    require (marriageIdByAddress[_person1address] == 0);\n    require (marriageIdByAddress[_person2address] == 0);\n    _;\n   }\n\n  struct Marriage {\n    string person1name;\n    string person2name;\n    address person1address;\n    address person2address;\n  }\n\n  Marriage[] public marriages;\n\n  mapping (address => uint256) public marriageIdByAddress;\n\n  //step1: create marriage by submitting 2 addresses. look up any marriage by an address.\n  //step2: create marriage by submitting from address, 2nd person approves\n  //step3: divorces\n\n  //function getMarriageId(address _address) public view returns (uint256) {\n  //  return marriageIdByAddress(_address);\n  //}\n\n  function execCreateMarriage(string _person1name, string _person2name,\n    address _person1address, address _person2address)\n  external\n  onlyOwner\n  noActiveMarriage(_person1address, _person2address) {\n    //Marriage memory marriage = Marriage(_person1name, _person2name,\n    //  _person1address, _person2address);\n    _createMarriage(_person1name, _person2name, _person1address, _person2address);\n  }\n\n  function _createMarriage(string _person1name, string _person2name,\n    address _person1address, address _person2address) internal {\n    //uint id = marriages.push(_marriage) - 1;\n    uint id = marriages.push(Marriage(_person1name, _person2name, _person1address, _person2address)) - 1;\n    marriageIdByAddress[_person1address] = id;\n    marriageIdByAddress[_person2address] = id;\n    emit NewMarriage(_person1name, _person2name, _person1address, _person2address);\n  }\n\n}\n",
  "sourcePath": "/Users/lyanco/workspace/solidity-experiments/marriage-registry/contracts/marriage-registry.sol",
  "compiler": {
    "name": "solc",
    "version": "0.4.24+commit.e67f0147.Emscripten.clang"
  },
  "schemaVersion": "2.0.0",
  "updatedAt": "2018-06-26T20:23:53.391Z"
}